:100000000C9433020C943D020C943D020C943D027E
:100010000C943D020C943D020C943D020C943D0264
:100020000C943D020C943D020C943D020C943D0254
:100030000C943D020C9450020C943D020C943D0231
:100040000C943D020C943D020C943D020C943D0234
:100050000C943D020C943D020C943D020C943D0224
:100060000C9474020C943D020C943D020C943D02DD
:100070000C943D020C943D020C943D0200000000E3
:100080000101010102020202030303030404040448
:1000900005050505060606060707070708080808F8
:1000A000090909090A0A0A0A0B0B0B0B0C0C0C0DA7
:1000B0000D0D0D0E0E0E0E0F0F0F0F101010101154
:1000C0001111111212121213131313141414141504
:1000D00015151516161616171717171818181819B4
:1000E00019191A1A1A1A1B1B1B1B1C1C1C1C1D1D60
:1000F0001D1D1E1E1E1E1F1F1F1F20202020212110
:1001000021212222222223232323242424242525BF
:10011000252526262627272727282828282929296C
:10012000292A2A2A2A2B2B2B2B2C2C2C2C2D2D2D1B
:100130002D2E2E2E2E2F2F2F2F30303030313131CB
:100140003132323233333333343434343535353578
:100150003636363637373737383838383939393927
:100160003A3A3A3A3B3B3B3B3C3C3C3C3D3D3D3DD7
:100170003E3E3E3E3F3F3F40404040414141414284
:100180004242424343434344444444454545454633
:100190004646464747474748484848494949494AE3
:1001A0004A4A4A4B4B4B4B4C4C4C4D4D4D4D4E4E91
:1001B0004E4E4F4F4F4F505050505151515152523F
:1001C00052525353535354545454555555555656EF
:1001D000565657575757585858585959595A5A5A9E
:1001E0005A5B5B5B5B5C5C5C5C5D5D5D5D5E5E5E4B
:1001F0005E5F5F5F5F6060606061616161626262FB
:1002000062636363636464646465656566666666A9
:100210006767676768686868696969696A6A6A6A56
:100220006B6B6B6B6C6C6C6C6D6D6D6D6E6E6E6E06
:100230006F6F6F6F707070707171717172727273B5
:100240007373737474747475757575767676767762
:1002500077777778787878797979797A7A7A7A7B12
:100260007B7B7B7C7C7C7C7D7D7D7D7E7E7E7E7FC2
:100270007F7F80808080818181818282828283836E
:10028000838384848484858585858686868687871E
:10029000878788888888898989898A8A8A8A8B8BCE
:1002A0008B8B8C8C8C8D8D8D8D8E8E8E8E8F8F8F7B
:1002B0008F9090909091919191929292929393932A
:1002C00093949494949595959596969696979797DA
:1002D00097989898999999999A9A9A9A9B9B9B9B87
:1002E0009C9C9C9C9D9D9D9D9E9E9E9E9F9F9F9F36
:1002F000A0A0A0A0A1A1A1A1A2A2A2A2A3A3A3A3E6
:10030000A4A4A4A4A5A5A5A6A6A6A6A7A7A7A7A892
:10031000A8A8A8A9A9A9A9AAAAAAAAABABABABAC41
:10032000ACACACADADADADAEAEAEAEAFAFAFAFB0F1
:10033000B0B0B0B1B1B1B1B2B2B2B3B3B3B3B4B49F
:10034000B4B4B5B5B5B5B6B6B6B6B7B7B7B7B8B84D
:10035000B8B8B9B9B9B9BABABABABBBBBBBBBCBCFD
:10036000BCBCBDBDBDBDBEBEBEBEBFBFBFC0C0C0AC
:10037000C0C1C1C1C1C2C2C2C2C3C3C3C3C4C4C459
:10038000C4C5C5C5C5C6C6C6C6C7C7C7C7C8C8C809
:10039000C8C9C9C9C9CACACACACBCBCBCCCCCCCCB8
:1003A000CDCDCDCDCECECECECFCFCFCFD0D0D0D065
:1003B000D1D1D1D1D2D2D2D2D3D3D3D3D4D4D4D415
:1003C000D5D5D5D5D6D6D6D6D7D7D7D7D8D8D8D9C4
:1003D000D9D9D9DADADADADBDBDBDBDCDCDCDCDD71
:1003E000DDDDDDDEDEDEDEDFDFDFDFE0E0E0E0E121
:1003F000E1E1E1E2E2E2E2E3E3E3E3E4E4E4E4E5D1
:10040000E5E5E6E6E6E6E7E7E7E7E8E8E8E8E9E97C
:10041000E9E9EAEAEAEAEBEBEBEBECECECECEDED2C
:10042000EDEDEEEEEEEEEFEFEFEFF0F0F0F0F1F1DC
:10043000F1F1F2F2F2F3F3F3F3F4F4F4F4F5F5F589
:10044000F5F6F6F6F6F7F7F7F7F8F8F8F8F9F9F938
:10045000F9FAFAFAFAFBFBFBFBFCFCFCFCFDFDFDE8
:10046000FDFEFEFEFF0011241FBECFEFD4E0DEBF75
:10047000CDBF0E94D8020C94E4020C9400000E94AC
:10048000BD02892B19F081E090E008950E949E0240
:10049000892BC9F70E94C7020097A9F7789408959D
:1004A0001F920F920FB60F9211242F933F934F93E9
:1004B0005F936F937F938F939F93AF93BF93EF93CC
:1004C000FF930E94AC02FF91EF91BF91AF919F917A
:1004D0008F917F916F915F914F913F912F910F90ED
:1004E0000FBE0F901F9018951F920F920FB60F928C
:1004F00011242F933F934F935F936F937F938F9329
:100500009F93AF93BF93EF93FF9380917800909167
:1005100079000E94B2020E94C502FF91EF91BF9143
:10052000AF919F918F917F916F915F914F913F918B
:100530002F910F900FBE0F901F901895EEE7F0E0EF
:1005400080818160808380E480937C008DE880934B
:100550007A0090E080E00895EAE7F0E0808180642E
:1005600080830895893E23E0920710F088EE93E09F
:1005700084589F4FFC0184910895239A83E884BD99
:1005800081E085BD90E080E0089587BD089583EF08
:1005900091E0909389008093880089E080938100A6
:1005A000EFE6F0E080818260808390E080E0089553
:1005B0000E943F0283B7817F83BF83B7816083BF7F
:0C05C000889583B78E7FF8CFF894FFCFAA
:00000001FF
